:020000040800F2
:10000000000002207D210008652000086D20000806
:10001000752000087D2000088520000800000000F1
:100020000000000000000000000000008D2000081B
:100030009B20000800000000A9200008B72000084D
:10004000CD210008CD210008CD210008CD210008D8
:10005000CD210008CD210008CD210008CD210008C8
:10006000CD210008CD210008CD210008CD210008B8
:10007000CD210008CD210008CD210008CD210008A8
:10008000CD210008CD210008CD210008CD21000898
:10009000CD210008CD210008CD210008CD21000888
:1000A000CD210008CD210008CD210008C520000881
:1000B000CD210008D9200008CD210008CD2100085D
:1000C000CD210008CD210008CD210008CD21000858
:1000D000CD210008CD210008CD210008CD21000848
:1000E000CD210008CD210008CD210008CD21000838
:1000F000CD210008CD210008CD210008CD21000828
:10010000CD210008CD210008CD210008CD21000817
:10011000CD210008CD210008CD210008CD21000807
:10012000CD210008CD210008CD210008CD210008F7
:10013000CD210008CD210008CD210008CD210008E7
:10014000CD210008CD210008CD210008CD210008D7
:10015000CD210008CD210008CD210008CD210008C7
:10016000CD210008CD210008CD210008CD210008B7
:10017000CD210008CD210008CD210008000000009D
:08018000CD210008CD2100088B
:1001900010B5054C237833B9044B13B10448AFF3C1
:1001A00000800123237010BD6800002000000000C3
:1001B000E05A000808B5034B1BB103490348AFF3ED
:1001C000008008BD000000006C000020E05A00081C
:1001D00001F0FF01102A2BDB10F0070F08D010F8F8
:1001E000013B013A8B422DD010F0070F42B3F6D1FC
:1001F000F0B441EA012141EA014122F007047FF015
:1002000000070023F0E80256083C85EA010586EA6B
:10021000010685FA47F5A3FA87F586FA47F6A5FAA7
:1002200087F68EB9EED1F0BC01F0FF0102F00702B3
:1002300032B110F8013B013A83EA010313B1F8D15E
:100240000020704701387047002D06BF354603383F
:10025000073815F0010F07D1013015F4807F02BF78
:10026000013015F4C03F0130F0BC0138704700BFC9
:1002700070B54FF0FF0C4CF4E06C1CEA11541DBF3C
:100280001CEA135594EA0C0F95EA0C0F00F0DEF807
:100290002C4481EA030621EA4C5123EA4C5350EAEC
:1002A000013518BF52EA033541F4801143F480133D
:1002B00038D0A0FB02CE4FF00005E1FB02E506F0CE
:1002C0000042E0FB03E54FF00006E1FB03569CF023
:1002D000000F18BF4EF0010EA4F1FF04B6F5007F29
:1002E00064F5407404D25FEA4E0E6D4146EB06069B
:1002F00042EAC62141EA55514FEAC52040EA5E5024
:100300004FEACE2EB4F1FD0C88BFBCF5E06F1ED8CD
:10031000BEF1004F08BF5FEA500E50F1000041EB04
:10032000045170BD06F0004646EA010140EA0200B1
:1003300081EA0301B4EB5C04C2BFD4EB0C0541EAD3
:10034000045170BD41F480114FF0000E013C00F3E8
:10035000AB8014F1360FDEBF002001F0004170BD0C
:10036000C4F10004203C35DA0C341BDC04F1140425
:10037000C4F1200500FA05F320FA04F001FA05F2B1
:1003800040EA020001F0004221F0004110EBD3707E
:1003900021FA04F642EB06015EEA430E08BF20EAAA
:1003A000D37070BDC4F10C04C4F1200500FA04F34D
:1003B00020FA05F001FA04F240EA020001F00041DF
:1003C00010EBD37041F100015EEA430E08BF20EA52
:1003D000D37070BDC4F1200500FA05F24EEA020E9A
:1003E00020FA04F301FA05F243EA020321FA04F0C9
:1003F00001F0004121FA04F220EA020000EBD37080
:100400005EEA430E08BF20EAD37070BD94F0000F7F
:100410000FD101F00046400041EB010111F4801FB3
:1004200008BF013CF7D041EA060195F0000F18BF64
:10043000704703F00046520043EB030313F4801FA0
:1004400008BF013DF7D043EA0603704794EA0C0F5A
:100450000CEA135518BF95EA0C0F0CD050EA410670
:1004600018BF52EA4306D1D181EA030101F00041ED
:100470004FF0000070BD50EA410606BF1046194615
:1004800052EA430619D094EA0C0F02D150EA013621
:1004900013D195EA0C0F05D152EA03361CBF104662
:1004A00019460AD181EA030101F0004141F0FE4101
:1004B00041F470014FF0000070BD41F0FE4141F485
:1004C000780170BD81F0004102E000BF83F000437D
:1004D00030B54FEA41044FEA430594EA050F08BFDF
:1004E00090EA020F1FBF54EA000C55EA020C7FEAA3
:1004F000645C7FEA655C00F0E2804FEA5454D4EB20
:100500005555B8BF6D420CDD2C4480EA020281EAE9
:10051000030382EA000083EA010180EA020281EA21
:100520000303362D88BF30BD11F0004F4FEA013173
:100530004FF4801C4CEA113102D0404261EB410182
:1005400013F0004F4FEA03334CEA133302D0524208
:1005500063EB430394EA050F00F0A780A4F10104C4
:10056000D5F1200E0DDB02FA0EFC22FA05F28018FE
:1005700041F1000103FA0EF2801843FA05F35941E4
:100580000EE0A5F120050EF1200E012A03FA0EFC63
:1005900028BF4CF0020C43FA05F3C01851EBE3718D
:1005A00001F0004507D54FF0000EDCF1000C7EEBAA
:1005B00000006EEB0101B1F5801F1BD3B1F5001FE8
:1005C0000CD349085FEA30004FEA3C0C04F1010407
:1005D0004FEA445212F5800F80F09A80BCF1004F30
:1005E00008BF5FEA500C50F1000041EB045141EAB2
:1005F000050130BD5FEA4C0C404141EB0101013C7B
:1006000028BFB1F5801FE9D291F0000F04BF014669
:100610000020B1FA81F308BF2033A3F10B03B3F13B
:1006200020020CDA0C3208DD02F1140CC2F10C02CB
:1006300001FA0CF021FA02F10CE002F11402D8BF29
:10064000C2F1200C01FA02F120FA0CFCDCBF41EAF5
:100650000C019040E41AA2BF01EB0451294330BDC4
:100660006FEA04041F3C1CDA0C340EDC04F11404A1
:10067000C4F1200220FA04F001FA02F340EA030078
:1006800021FA04F345EA030130BDC4F10C04C4F1BE
:10069000200220FA02F001FA04F340EA030029469E
:1006A00030BD21FA04F0294630BD94F0000F83F4E8
:1006B000801306BF81F480110134013D4EE77FEACB
:1006C000645C18BF7FEA655C29D094EA050F08BF17
:1006D00090EA020F05D054EA000C04BF19461046F8
:1006E00030BD91EA030F1EBF0021002030BD5FEA3C
:1006F000545C05D14000494128BF41F0004130BD64
:1007000014F580043CBF01F5801130BD01F00045B7
:1007100045F0FE4141F470014FF0000030BD7FEA2A
:10072000645C1ABF194610467FEA655C1CBF0B4625
:10073000024650EA013406BF52EA033591EA030F3C
:1007400041F4002130BD00BF90F0000F04BF002134
:10075000704730B54FF4806404F132044FF0000567
:100760004FF0000150E700BF90F0000F04BF0021E0
:10077000704730B54FF4806404F1320410F0004546
:1007800048BF40424FF000013EE700BF42004FEA41
:10079000E2014FEA31014FEA02701FBF12F07F43BE
:1007A00093F07F4F81F06051704732F07F4208BF75
:1007B000704793F07F4F04BF41F40021704730B57C
:1007C0004FF4607401F0004521F000411CE700BFC8
:1007D00050EA010208BF704730B54FF000050AE04B
:1007E00050EA010208BF704730B511F0004502D54C
:1007F000404261EB41014FF4806404F132045FEA4E
:10080000915C3FF4D8AE4FF003025FEADC0C18BFF6
:1008100003325FEADC0C18BF033202EBDC02C2F1E8
:10082000200300FA03FC20FA02F001FA03FE40EA7A
:100830000E0021FA02F11444BDE600BF4FF0FF3C68
:1008400006E000BF4FF0010C02E000BF4FF0010CCA
:100850004DF804CD4FEA410C7FEA6C5C4FEA430C43
:1008600018BF7FEA6C5C1BD001B050EA410C0CBF92
:1008700052EA430C91EA030F02BF90EA020F0020F4
:10088000704710F1000F91EA030F58BF994208BF5B
:1008900090422CBFD8176FEAE37040F00100704718
:1008A0004FEA410C7FEA6C5C02D150EA013C07D16F
:1008B0004FEA430C7FEA6C5CD6D152EA033CD3D0BA
:1008C0005DF8040B704700BF8446104662468C46B4
:1008D0001946634600E000BF01B5FFF7B7FF0028E7
:1008E00048BF10F1000F01BD4DF808EDFFF7F4FF10
:1008F0000CBF012000205DF808FB00BF4DF808ED9B
:10090000FFF7EAFF34BF012000205DF808FB00BFBD
:100910004DF808EDFFF7E0FF94BF012000205DF8DF
:1009200008FB00BF4DF808EDFFF7CEFF94BF012094
:1009300000205DF808FB00BF4DF808EDFFF7C4FF8D
:1009400034BF012000205DF808FB00BF53B94AB94D
:10095000002908BF00281CBF4FF0FF314FF0FF30C7
:1009600000F088B9ADF1080C6DE904CE00F006F88E
:10097000DDF804E0DDE9022304B070472DE9F0471B
:10098000089D8E4604468846002B4AD18A42174667
:1009900062D9B2FA82F64EB1C6F1200301FA06F826
:1009A00020FA03F3B74043EA0808B4404FEA174E71
:1009B0001FFA87FCB8FBFEF1230C0EFB118843EAFB
:1009C000084301FB0CF29A4209D9FB1801F1FF30F0
:1009D00080F0EA809A4240F2E78002393B449A1A5A
:1009E000A3B2B2FBFEF00EFB102243EA024300FB6F
:1009F0000CFC9C4509D9FB1800F1FF3280F0D68031
:100A00009C4540F2D3803B44023840EA0140A3EBCE
:100A10000C0300211DB1F3400022C5E90032BDE8FE
:100A2000F0878B4205D90DB1C5E9000100210846C8
:100A3000F5E7B3FA83F1002946D1734502D3824228
:100A400000F20581841A6EEB030201209046002D0E
:100A5000E5D0C5E90048E2E7002A00F09080B2FA4C
:100A600082F6002E40F0A4808A1A030C4FEA174E3B
:100A700080B2BCB20121B2FBFEFC0EFB1C2243EA99
:100A8000024304FB0CF29A4207D9FB180CF1FF3821
:100A900002D29A4200F2E080C4469B1AB3FBFEF2F7
:100AA0000EFB123340EA034302FB04F49C4207D9D5
:100AB000FB1802F1FF3002D29C4200F2CA800246CB
:100AC0001B1B42EA0C40A5E7C1F120068B4022FA2D
:100AD00006F71F430EFA01F420FA06F32EFA06FE7B
:100AE0004FEA1749234300FA01F81FFA87FCBEFBBF
:100AF000F9F01C0C09FB10EE44EA0E4400FB0CFE5E
:100B0000A64502FA01F209D93C1900F1FF3A80F03A
:100B10009C80A64540F2998002383C44A4EB0E0428
:100B20001FFA83FEB4FBF9F309FB13444EEA0444B5
:100B300003FB0CFCA44508D93C1903F1FF3E80F0EF
:100B40008280A4457FD9023B3C4443EA0040A4EBA9
:100B50000C04A0FB02EC64457346E14662D35FD00F
:100B60005DB1B8EB030264EB090404FA06F622FA5D
:100B700001F31E43CC40C5E9006400214FE7B1FBFF
:100B8000F2FC010C41EA0E4180B240EA01423B46D0
:100B900038463C46B846BE462026B1FBF7F1A2EBEC
:100BA000080241EA0C4166E7014618E710462CE7C7
:100BB000C6F120022EFA02F3B740B14020FA02F249
:100BC0004FEA174E0A43B3FBFEF8BCB20EFB1833D4
:100BD000110C41EA034108FB04F9B04089454FEA92
:100BE000104380B23ED9791808F1FF3C01D2894503
:100BF0001FD8A1EB0901B1FBFEF909FB04F80EFBBC
:100C0000191192B242EA0142424529D2BA1809F1B9
:100C1000FF31C4D24245C2D2A9F102013A44BEE733
:100C2000F0459DD2BEEB02036CEB070C0138E146A8
:100C300096E7A7EB09094944A8F1020CB1FBFEF9BC
:100C400009FB04F8DBE773467FE7504666E7084692
:100C5000FDE63B44023A33E7ACF1020C3B441CE7AF
:100C600049469CE7A1EB0901C446B1FBFEF909FB2B
:100C700004F8C4E7704700BF80B485B000AF786067
:100C800087ED000AD7ED007AF5EEC07AF1EE10FAA2
:100C900002D54FF000033B60D7ED007A9FED277A35
:100CA000F4EEC77AF1EE10FA01DD254B3B6097EDCB
:100CB000007ADFED226AC7EE267A9FED227A67EE90
:100CC000877A9FED217A77EE877AC7ED037A7B6882
:100CD000002B09D11D4B1B68D7ED037AFCEEE77A98
:100CE00017EE902A5A6322E07B68042B09D1174B38
:100CF0001A68D7ED037AFCEEE77A17EE903A936321
:100D000015E07B68082B09D1104B1A68D7ED037AE0
:100D1000FCEEE77A17EE903AD36308E00B4B1A68C3
:100D2000D7ED037AFCEEE77A17EE903A136400BF32
:100D30001437BD465DF8047B704700BF00003443A4
:100D4000000034430000FA440000FA432001002070
:100D500080B500AF0021064802F0D4FF042104480A
:100D600002F0D0FF0821024802F0CCFF00BF80BD96
:100D70002001002080B582B000AF034687ED000A55
:100D8000FB71FB79002B0DD0FB79032B0AD8FB7983
:100D9000013B064A52F8233097ED000A1846FFF748
:100DA0006BFF00E000BF0837BD4680BD000000209B
:100DB00080B584B000AFF860B9607A603B60FB68D2
:100DC000BA681A61FB687A685A61FB683A689A6186
:100DD000FB68BA69DA60012000F054F8032000F0E3
:100DE0000BF8FB6800221A80FB6800229A7000BF93
:100DF0001037BD4680BD000080B582B000AF03460D
:100E0000FB71FB79032B37D801A252F823F000BF06
:100E1000210E0008370E00084D0E0008630E000872
:100E200000221021164801F017FD0022202114484D
:100E300001F012FD20E001221021114801F00CFD0B
:100E4000012220210E4801F007FD15E000221021AB
:100E50000B4801F001FD01222021094801F0FCFCB2
:100E60000AE001221021064801F0F6FC00222021B0
:100E7000034801F0F1FC00BF00BF0837BD4680BD4C
:100E80000010024080B582B000AF0346FB71FB79D1
:100E9000032B37D801A252F823F000BFAD0E000893
:100EA000C30E0008D90E0008EF0E0008002204212E
:100EB000164801F0D1FC00220821144801F0CCFCB6
:100EC00020E000220421114801F0C6FC0122082183
:100ED0000E4801F0C1FC15E0012204210B4801F08D
:100EE000BBFC00220821094801F0B6FC0AE00122FF
:100EF0000421064801F0B0FC01220821034801F05A
:100F0000ABFC00BF00BF0837BD4680BD00100240EB
:100F100080B485B000AF7860284B1B685B6BBB81E9
:100F20007B681B889BB2BA899A4206D37B681B8870
:100F30009BB2BA89D31AFB810DE0204B1B68DB6A98
:100F40009AB27B681B889BB2D31A9AB2BB891344AE
:100F50009BB20133FB81FB89194A92FBF3F37B813E
:100F60007B68BA891A807B689B78DBB2012B06D13B
:100F70007B681B697A891A807B687A899A807B688A
:100F80009B78DBB2022B06D17B685B697A891A8079
:100F90007B687A89DA807B689B78DBB2002B06D18C
:100FA0007B689B697A891A807B687A891A8100BF7D
:100FB0001437BD465DF8047B704700BFD8000020A1
:100FC00040420F0080B582B000AF78607B689B78AC
:100FD000DBB2022B14D0022B19DC002B02D0012B28
:100FE00007D014E00020FFF707FF786800F026F82C
:100FF0000DE00120FFF700FF786800F01FF806E021
:101000000220FFF7F9FE786800F018F800BF7B684F
:101010009B78DBB25A1C084B83FB0231D317C91AE9
:101020000B465B000B44D11ACAB27B689A7000BFB2
:101030000837BD4680BD00BF5655555580B483B0B6
:1010400000AF78607B6800221A8000BF0C37BD4675
:101050005DF8047B70470000B0B582B000AF7860E7
:101060007B689B88772B0CD87B68DB88772B08D82C
:101070007B681B89772B04D87B68DB6803221A8086
:1010800034E07B689A887B68DB889A420AD97B685F
:101090009A887B681B899A4204D97B68DB680022A6
:1010A0001A8023E07B68DB881846FFF75DFB044667
:1010B0000D467B689B881846FFF756FB0EA3D3E9C5
:1010C0000023FFF7D5F802460B4620462946FFF7D6
:1010D00033FC0346002B04D07B68DB6802221A80B5
:1010E00004E07B68DB6801221A80FFE700BF083755
:1010F000BD46B0BDAFF30080666666666666FE3FBD
:1011000080B586B002AF0346FB71FB7923F00F0375
:10111000FB73FB791B01BB73FB7B43F00C03DBB25E
:101120003B72FB7B43F00803DBB27B72BB7B43F07B
:101130000C03DBB2BB72BB7B43F00803DBB2FB7278
:1011400007F108026423009304234E21034801F0B1
:10115000E1FC00BF1037BD4680BD00BF8400002009
:1011600080B586B002AF0346FB71FB7923F00F0315
:10117000FB73FB791B01BB73FB7B43F00D03DBB2FD
:101180003B72FB7B43F00903DBB27B72BB7B43F01A
:101190000D03DBB2BB72BB7B43F00903DBB2FB7216
:1011A00007F108026423009304234E21034801F051
:1011B000B1FC00BF1037BD4680BD00BF84000020D9
:1011C00080B500AF3320FFF79BFF3220FFF798FF79
:1011D000322001F06FF82820FFF792FF322001F053
:1011E00069F80120FFF78CFF322001F063F8062038
:1011F000FFF786FF322001F05DF80C20FFF780FF3B
:10120000322001F057F80220FFF77AFF322001F078
:1012100051F88020FFF774FF00BF80BD80B582B019
:1012200000AF786006E07B685A1C7A601B7818462D
:10123000FFF796FF7B681B78002BF4D100BF00BF3F
:101240000837BD4680BD80B584B000AF7860396096
:101250007B68012B08D17B68DAB23B68DBB21344B0
:10126000DBB27F33FB7308E03B68DBB24033DBB2B9
:101270005BB263F07F035BB2FB73FB7B1846FFF747
:101280003FFF00BF1037BD4680BD000080B483B073
:1012900000AF78607B681B68054A934202D1054B1A
:1012A00001221A7000BF0C37BD465DF8047B704701
:1012B00000000140CC01002080B483B000AF786012
:1012C0007B681B68054A934202D1054B01221A70C4
:1012D00000BF0C37BD465DF8047B7047000400403A
:1012E000CD01002080B5ADF57B5D8CB002AF00F084
:1012F0006FFF00F04FFA00F033FC00F0E3FA00F06B
:1013000055FB00F0DFFB00F0AFFA0021BF4802F010
:101310001BFE0021BE4802F0F5FCBE4802F028FC8E
:10132000FFF716FD002307F57B5202F1240213603C
:10133000002307F57B5202F120021360B64B0093A5
:10134000B64BB74AB749B848FFF732FD07F5FB532C
:1013500003F10803083B184600F066FC07F1280378
:10136000143B184600F060FC9FEDB80A0120FFF71F
:1013700001FD9FEDB70A0220FFF7FCFCFFF720FFFD
:1013800001210120FFF75FFF002307F57B5202F1E7
:101390001C0213600C2307F57B5202F1100213604C
:1013A000002307F57B5202F118021360C82307F5EA
:1013B0007B5202F10C021360002307F57B5202F10D
:1013C0001402136034E007F53B5303F12803A3F63E
:1013D000887307F57B5202F11402126853F8323019
:1013E000002B1ADD07F53B5303F12803A3F688739E
:1013F00007F57B5202F11402126853F83230591E7D
:1014000007F53B5303F12803A3F6887307F57B52D6
:1014100002F11402126843F8321007F57B5303F10E
:1014200014031B68013307F57B5202F114021360A9
:1014300007F57B5303F114031B68B3F57A7FC2DB16
:101440007A4B1B78002B05D0784B00221A70764817
:10145000FFF75EFD764B1B78002B05D0744B002206
:101460001A707148FFF7AEFD6F48FFF7F5FD6A4B44
:101470001B881A4607F57B5303F120031B68934230
:101480000BD107F57B5303F11C031B68013307F5F0
:101490007B5202F11C02136005E0002307F57B522A
:1014A00002F11C02136007F57B5303F11C031A6859
:1014B00007F57B5303F110031B689A420DDB564B73
:1014C0001A885C4B1A8007F57B5303F110031B68E5
:1014D00007F57B5202F11C021360564B1B881A461B
:1014E00007F57B5303F124031B68934251D0514B02
:1014F0001B88032B4DD007F57B5303F118031A68A3
:1015000007F57B5303F10C031B689A4241DB494BFF
:101510001B88012B17D0474B1B88194607F128035E
:10152000283B4FF49662184600F09EFB07F6E863EE
:10153000A3F6E86207F5FB5303F10803083B06CA6C
:10154000184600F0CCFB3B4B1B88022B0DD0022B26
:1015500019DC002B02D0012B0ED014E0364B1B8877
:1015600001339AB2344B1A800DE0344B1B8801339F
:101570009AB2324B1A8006E0314B1B8801339AB283
:101580002F4B1A8000BF002307F57B5202F118028F
:10159000136007F5FB5303F10803083B184600F0FE
:1015A0008AFB0346002B40F09F8007F57A5202F138
:1015B0002C0207F5FB5303F10803083B19461046BC
:1015C00000F00DFC07F57A5303F12C031B6840F281
:1015D0009B42934260DC07F57A5202F1340207F530
:1015E000FB5303F10803083B1946104600F0F7FBD4
:1015F00007F57A5303F138031B68002B2AD19FEDBE
:10160000110A0120FFF7B6FB46E000BFD80000201A
:101610002001002068010020CE010020D60100201A
:10162000D4010020D2010020B0010020CC01002014
:10163000CD010020D0010020D8010020DC010020D5
:10164000DA0100200000964200000743000000007D
:101650000000344307F57A5202F13C0207F5FB53D0
:1016600003F10803083B1946104600F0B8FB07F5E4
:101670007B531B68022B05D11FED0D0A0220FFF7DB
:1016800079FB09E01FED0F0A0120FFF773FB1FED47
:10169000100A0220FFF76EFB07F57B5202F10402ED
:1016A00007F5FB5303F10803083B1946104600F009
:1016B00096FB07F57B5303F104031B6840F2B63237
:1016C000934211DC07F5FB5303F10803083B18466E
:1016D00000F04EFB1FED230A0120FFF74BFB1FED2F
:1016E000240A0220FFF746FB244B1B8807F57B5298
:1016F00002F120021360224B1B8807F57B5202F196
:101700002402136007F57B5303F118031B680133B0
:1017100007F57B5202F11802136007F57B5303F1C2
:1017200018031A6807F57B5303F10C031B689A42F0
:1017300009DD07F57B5303F10C031B6807F57B52AA
:1017400002F1180213600F4B1B881A460E4B1B88C0
:1017500019460E4B1B8807F12800203800930B46D2
:101760000B4903F01DFD01210120FFF76CFD07F17E
:101770002803203B1846FFF751FD1DE6CE0100204F
:10178000D0010020D8010020DC010020DA01002077
:10179000F85A000880B594B000AF07F1200330225A
:1017A0000021184603F01EFD07F10C0300221A6009
:1017B0005A609A60DA601A610023BB60284B1B6C88
:1017C000274A43F080531364254B1B6C03F080536E
:1017D000BB60BB6800237B60224B1B68214A43F43B
:1017E000804313601F4B1B6803F480437B607B685E
:1017F00002233B620123FB6210233B630223BB6392
:101800000023FB6308233B6448237B640223BB64FF
:101810000423FB6407F12003184601F0D5FC0346BE
:10182000002B01D000F0FAF90F23FB6002233B618B
:1018300000237B614FF48053BB614FF48053FB6105
:1018400007F10C030221184601F036FF0346002B76
:1018500001D000F0E3F900BF5037BD4680BD00BFA6
:10186000003802400070004080B500AF124B134AB0
:101870001A60114B124A5A600F4B00229A600E4BAD
:101880000022DA600C4B4FF480421A610A4B0022AE
:101890005A61094B00229A61074B0022DA61064B1C
:1018A00000221A62044800F0F1FF0346002B01D029
:1018B00000F0B4F900BF80BD840000200054004057
:1018C000A086010080B58AB000AF07F1180300229E
:1018D0001A605A609A60DA6007F1100300221A60F9
:1018E0005A603B4600221A605A609A60DA602D4BBB
:1018F0002D4A1A602B4B47225A602A4B00229A60CD
:10190000284B4CF24F32DA60264B00221A61254BED
:1019100000225A61234B00229A61224802F0D8F833
:101920000346002B01D000F079F94FF48053BB61DE
:1019300007F1180319461B4802F07CFE0346002BF2
:1019400001D000F06BF9174802F0A4FA0346002B0F
:1019500001D000F063F900233B6100237B6107F1B4
:10196000100319460F4803F08BFB0346002B01D0F0
:1019700000F054F900233B6001237B600023BB602F
:101980000023FB603B4600221946064802F0F4FCA7
:101990000346002B01D000F041F900BF2837BD46B7
:1019A00080BD00BFD80000200000014080B58EB08F
:1019B00000AF07F1280300221A605A609A60DA60CB
:1019C00007F1200300221A605A603B1D00221A60B2
:1019D0005A609A60DA601A615A619A61384B4FF026
:1019E00080421A60364B47225A60354B00229A607B
:1019F000334B44F61F62DA60314B00221A61304BE0
:101A000000229A612E4802F063F80346002B01D0B1
:101A100000F004F94FF48053BB6207F12803194624
:101A2000274802F007FE0346002B01D000F0F6F82D
:101A3000234802F00DF90346002B01D000F0EEF828
:101A400000233B6200237B6207F1200319461C48F8
:101A500003F016FB0346002B01D000F0DFF86023F3
:101A60007B600023BB600023FB6000237B613B1D88
:101A700000221946124802F01BFD0346002B01D03C
:101A800000F0CCF83B1D042219460D4802F010FD71
:101A90000346002B01D000F0C1F83B1D0822194677
:101AA000074802F005FD0346002B01D000F0B6F810
:101AB000034800F09FFA00BF3837BD4680BD00BF25
:101AC0002001002080B586B000AF07F10803002296
:101AD0001A605A609A60DA603B4600221A605A60C7
:101AE0001D4B1E4A1A601C4B47225A601A4B00229B
:101AF0009A60194B4CF24F32DA60174B00221A6190
:101B0000154B00229A61144801F0E2FF0346002BB6
:101B100001D000F083F84FF48053BB6007F1080355
:101B200019460D4802F086FD0346002B01D000F057
:101B300075F800233B6000237B603B46194606484E
:101B400003F09EFA0346002B01D000F067F800BFB7
:101B50001837BD4680BD00BF68010020000400406A
:101B600080B58AB000AF07F1140300221A605A60F2
:101B70009A60DA601A6100233B61264B1B6B254A91
:101B800043F010031363234B1B6B03F010033B6103
:101B90003B690023FB601F4B1B6B1E4A43F0800315
:101BA00013631C4B1B6B03F08003FB60FB6800237B
:101BB000BB60184B1B6B174A43F001031363154BB3
:101BC0001B6B03F00103BB60BB6800237B60114B00
:101BD0001B6B104A43F0020313630E4B1B6B03F0A5
:101BE00002037B607B6800223C210B4800F034FE3E
:101BF0003C237B610123BB610023FB6100233B622B
:101C000007F114031946044800F08AFC00BF283786
:101C1000BD4680BD003802400010024080B400AFD5
:101C200072B600BF00BFFDE780B483B000AF78603C
:101C30007B6803F580531A460023C2F8403F7B6857
:101C400003F580531A464FF0FF33C2F8443F7B68D8
:101C500003F580531A460023C2F8483F00BF0C37F3
:101C6000BD465DF8047B704780B485B000AFF86076
:101C7000B9607A60FB68BA685A60FB687A681A6073
:101C800000BF1437BD465DF8047B704780B483B055
:101C900000AF78607B6803F58053D3F8483FB3F515
:101CA0007A7F0CBF01230023DBB218460C37BD46F8
:101CB0005DF8047B704780B483B000AF78607B68C8
:101CC00003F58053D3F8483F002B0CBF01230023BA
:101CD000DBB218460C37BD465DF8047B704780B513
:101CE00084B000AFF8603B1D83E80600F868FFF79A
:101CF000CDFF0346002B02D04FF0FF3334E0FB68EA
:101D000003F58053D3F8443F40F2E732934207D1C2
:101D1000FB6803F580531A464FF0FF33C2F8443F87
:101D2000FB6803F58053D3F8443F0133FA6802F5AA
:101D30008052C2F8443FFB6803F58053D3F8443F18
:101D4000FA68DB0013443A1D92E8030083E80300BD
:101D5000FB6803F58053D3F8483F0133FA6802F576
:101D60008052C2F8483F012318461037BD4680BD57
:101D700080B582B000AF78607868FFF79CFF0346BB
:101D8000002B02D04FF0FF3325E07B6803F5805332
:101D9000D3F8403F01337A6802F58052C2F8403FE1
:101DA0007B6803F58053D3F8403FB3F57A7F06D1C3
:101DB0007B6803F580531A460023C2F8403F7B68D6
:101DC00003F58053D3F8483F013B7A6802F580520F
:101DD000C2F8483F012318460837BD4680BD90B47D
:101DE00082B000AF786039603B6803F58053D3F868
:101DF000403F79683A680C46DB00134493E80300DF
:101E000084E8030078680837BD4690BC704700003E
:101E100080B483B000AF00237B60104B5B6C0F4A33
:101E200043F4804353640D4B5B6C03F480437B604D
:101E30007B6800233B60094B1B6C084A43F08053CE
:101E40001364064B1B6C03F080533B603B6800BF80
:101E50000C37BD465DF8047B704700BF0038024078
:101E600080B58AB000AF786007F1140300221A60D1
:101E70005A609A60DA601A617B681B68194A93425B
:101E80002BD100233B61184B1B6B174A43F0020315
:101E90001363154B1B6B03F002033B613B69C023CB
:101EA0007B611223BB610023FB6103233B6204239C
:101EB0007B6207F1140319460C4800F031FB002344
:101EC000FB60094B1B6C084A43F400131364064B78
:101ED0001B6C03F40013FB60FB6800BF2837BD4692
:101EE00080BD00BF005400400038024000040240A2
:101EF00080B58CB000AF786007F11C0300221A6037
:101F00005A609A60DA601A617B681B68354A9342AE
:101F100035D10023BB61344B5B6C334A43F0010382
:101F20005364314B5B6C03F00103BB61BB6900235D
:101F30007B612D4B1B6B2C4A43F0100313632A4B20
:101F40001B6B03F010037B617B694FF40073FB6133
:101F500002233B6200237B620023BB620123FB62FE
:101F600007F11C031946214800F0DAFA002200218B
:101F70001B2000F09EFA1B2000F0B7FA2EE07B68D1
:101F80001B68B3F1804F0ED100233B61164B1B6CD5
:101F9000154A43F001031364134B1B6C03F0010358
:101FA0003B613B691AE07B681B68114A934215D17B
:101FB0000023FB600C4B1B6C0B4A43F002031364C1
:101FC000094B1B6C03F00203FB60FB68002200213D
:101FD0001D2000F06EFA1D2000F087FA00BF303798
:101FE000BD4680BD000001400038024000100240A4
:101FF0000004004080B588B000AF786007F10C03A2
:1020000000221A605A609A60DA601A617B681B6865
:10201000B3F1804F1DD10023BB60104B1B6B0F4AE7
:1020200043F0010313630D4B1B6B03F00103BB6013
:10203000BB682623FB6002233B6100237B610023F6
:10204000BB610123FB6107F10C031946044800F052
:1020500067FA00BF2037BD4680BD00BF0038024090
:102060000000024080B400AF00BFFDE780B400AFC5
:1020700000BFFDE780B400AF00BFFDE780B400AF54
:1020800000BFFDE780B400AF00BFFDE780B400AF44
:1020900000BFBD465DF8047B704780B400AF00BF51
:1020A000BD465DF8047B704780B400AF00BFBD46FD
:1020B0005DF8047B704780B500AF00F0DBF800BF2F
:1020C00080BD000080B500AF024802F065F800BF97
:1020D00080BD00BFD800002080B500AF024802F0EC
:1020E0005BF800BF80BD00BF6801002080B586B0EE
:1020F00000AF7860144A154BD31A7B617B693B6152
:10210000134B1B68002B02D1114B124A1A60104B63
:102110001A687B6813443A699A4207D203F06AF856
:1021200003460C221A604FF0FF3309E0084B1B688E
:10213000FB60074B1A687B681344054A1360FB6811
:1021400018461837BD4680BD00000220000400007C
:10215000E00100203003002080B400AF064BD3F82C
:102160008830054A43F47003C2F8883000BFBD468A
:102170005DF8047B704700BF00ED00E0DFF834D06D
:10218000FFF7EAFF0C480D490D4A002302E0D4583E
:10219000C4500433C4188C42F9D30A4A0A4C0023B1
:1021A00001E013600432A242FBD303F029F8FFF7E9
:1021B00099F870470000022000000020680000200D
:1021C000645B00086800002030030020FEE7000088
:1021D00080B500AF0E4B1B680D4A43F400731360CB
:1021E0000B4B1B680A4A43F480631360084B1B685F
:1021F000074A43F480731360032000F04FF90F2067
:1022000000F008F8FFF704FE0023184680BD00BF69
:10221000003C024080B582B000AF7860124B1A6873
:10222000124B1B7819464FF47A73B3FBF1F3B2FBF0
:10223000F3F3184600F067F90346002B01D00123A1
:102240000EE07B680F2B0AD8002279684FF0FF3030
:1022500000F02FF9064A7B681360002300E0012399
:1022600018460837BD4680BD0C0000201400002031
:102270001000002080B400AF064B1B781A46064BB6
:102280001B681344044A136000BFBD465DF8047B1D
:10229000704700BF14000020E401002080B400AFAC
:1022A000034B1B681846BD465DF8047B704700BFB2
:1022B000E401002080B584B000AF7860FFF7EEFF46
:1022C000B8607B68FB60FB68B3F1FF3F05D00A4B49
:1022D0001B781A46FB681344FB6000BFFFF7DEFF64
:1022E0000246BB68D31AFA689A42F7D800BF00BF0B
:1022F0001037BD4680BD00BF1400002080B485B0FB
:1023000000AF78607B6803F00703FB600C4BDB6871
:10231000BB60BA684FF6FF031340BB60FB681A024C
:10232000BB68134343F0BF6343F40033BB60044A0C
:10233000BB68D36000BF1437BD465DF8047B7047AF
:1023400000ED00E080B400AF044BDB681B0A03F033
:1023500007031846BD465DF8047B704700ED00E0BA
:1023600080B483B000AF0346FB7197F90730002BB0
:102370000BDBFB7903F01F02074997F907305B0974
:10238000012000FA02F241F8232000BF0C37BD46BD
:102390005DF8047B704700BF00E100E080B483B0CB
:1023A00000AF03463960FB7197F90730002B0ADB59
:1023B0003B68DAB20C4997F907301201D2B20B44EC
:1023C00083F800230AE03B68DAB20849FB7903F09E
:1023D0000F03043B1201D2B20B441A7600BF0C3734
:1023E000BD465DF8047B704700E100E000ED00E0D1
:1023F00080B489B000AFF860B9607A60FB6803F020
:102400000703FB61FB69C3F10703042B28BF042307
:10241000BB61FB690433062B02D9FB69033B00E077
:1024200000237B614FF0FF32BB6902FA03F3DA430A
:10243000BB681A407B699A404FF0FF317B6901FA13
:1024400003F3D9437B680B40134318462437BD463A
:102450005DF8047B7047000080B582B000AF786003
:102460007B68013BB3F1807F01D301230FE00A4A6F
:102470007B68013B53600F214FF0FF30FFF78EFF69
:10248000054B00229A60044B07221A60002318466D
:102490000837BD4680BD00BF10E000E080B582B0C7
:1024A00000AF78607868FFF729FF00BF0837BD46A6
:1024B00080BD80B586B000AF0346B9607A60FB731B
:1024C00000237B61FFF73EFF78617A68B96878691D
:1024D000FFF78EFF024697F90F3011461846FFF7B7
:1024E0005DFF00BF1837BD4680BD80B582B000AF2C
:1024F0000346FB7197F907301846FFF731FF00BF1D
:102500000837BD4680BD80B582B000AF786078687E
:10251000FFF7A2FF034618460837BD4680BD0000FE
:1025200080B489B000AF7860396000237B610023FC
:102530003B610023BB610023FB616BE10122FB696E
:1025400002FA03F37B613B681B687A6913403B61C5
:102550003A697B699A4240F05A813B685B6803F0B4
:102560000303012B05D03B685B6803F00303022BD8
:1025700030D17B689B68BB61FB695B00032202FA78
:1025800003F3DB43BA691340BB613B68DA68FB695C
:102590005B0002FA03F3BA691343BB617B68BA6953
:1025A0009A607B685B68BB610122FB6902FA03F3F6
:1025B000DB43BA691340BB613B685B681B0903F0EE
:1025C0000102FB6902FA03F3BA691343BB617B683A
:1025D000BA695A603B685B6803F00303032B17D0AA
:1025E0007B68DB68BB61FB695B00032202FA03F3D3
:1025F000DB43BA691340BB613B689A68FB695B00C7
:1026000002FA03F3BA691343BB617B68BA69DA6003
:102610003B685B6803F00303022B23D1FB69DA08F4
:102620007B68083253F82230BB61FB6903F0070373
:102630009B000F2202FA03F3DB43BA691340BB612C
:102640003B681A69FB6903F007039B0002FA03F376
:10265000BA691343BB61FB69DA087B680832B96960
:1026600043F822107B681B68BB61FB695B00032297
:1026700002FA03F3DB43BA691340BB613B685B6852
:1026800003F00302FB695B0002FA03F3BA69134328
:10269000BB617B68BA691A603B685B6803F44033CE
:1026A000002B00F0B4800023FB60604B5B6C5F4A42
:1026B00043F4804353645D4B5B6C03F48043FB60E5
:1026C000FB685B4AFB699B08023352F82330BB610D
:1026D000FB6903F003039B000F2202FA03F3DB43C1
:1026E000BA691340BB617B68524A93422BD07B6826
:1026F000514A934225D07B68504A93421FD07B6851
:102700004F4A934219D07B684E4A934213D07B685C
:102710004D4A93420DD07B684C4A934207D07B6868
:102720004B4A934201D107230EE008230CE0062315
:102730000AE0052308E0042306E0032304E0022363
:1027400002E0012300E00023FA6902F00302920094
:102750009340BA691343BB613549FB699B08023357
:10276000BA6941F823203B4B9B68BB613B69DB4363
:10277000BA691340BB613B685B6803F48013002BAC
:1027800003D0BA693B691343BB61324ABB699360AA
:10279000304BDB68BB613B69DB43BA691340BB610B
:1027A0003B685B6803F40013002B03D0BA693B69F4
:1027B0001343BB61274ABB69D360264B5B68BB618F
:1027C0003B69DB43BA691340BB613B685B6803F458
:1027D0000033002B03D0BA693B691343BB611D4A28
:1027E000BB6953601B4B1B68BB613B69DB43BA6928
:1027F0001340BB613B685B6803F48033002B03D05C
:10280000BA693B691343BB61124ABB691360FB6938
:102810000133FB61FB690F2B7FF690AE00BF00BF59
:102820002437BD465DF8047B704700BF0038024086
:10283000003801400000024000040240000802404D
:10284000000C024000100240001402400018024038
:10285000001C0240003C014080B483B000AF7860AF
:102860000B467B8013467B707B78002B03D07A88E5
:102870007B689A6103E07B881A047B689A6100BFD9
:102880000C37BD465DF8047B7047000080B584B00E
:1028900000AF78607B68002B01D101232BE17B68BE
:1028A00093F83D30DBB2002B06D17B68002283F821
:1028B0003C207868FFF7D4FA7B68242283F83D2017
:1028C0007B681B681A687B681B6822F001021A602B
:1028D0007B681B681A687B681B6842F400421A60B8
:1028E0007B681B681A687B681B6822F400421A60C8
:1028F00001F0DAF8F8607B685B68814A934207D898
:10290000FB68804A934294BF01230023DBB206E0B8
:10291000FB687D4A934294BF01230023DBB2002B66
:1029200001D00123E7E0FB68784AA2FB03239B0C5C
:10293000BB607B681B685B6823F03F017B681B689A
:10294000BA680A435A607B681B681B6A23F03F0120
:102950007B685B686A4A934202D8BB68013309E02E
:10296000BB684FF4967202FB03F3694AA2FB032390
:102970009B0901337A6812680B4313627B681B68FA
:10298000DB6923F44F4222F0FF027B685B685C49FD
:102990008B4219D8FB68591E7B685B685B00B1FBF2
:1029A000F3F3591C40F6FC730B40002B0AD0FB6874
:1029B000591E7B685B685B00B1FBF3F30133C3F323
:1029C0000B0351E004234FE07B689B68002B11D17F
:1029D000FB68581E7B6859680B465B000B44B0FBD4
:1029E000F3F30133C3F30B03002B0CBF01230023CC
:1029F000DBB212E0FB68581E7B6859680B469B00EF
:102A00000B4499000B44B0FBF3F30133C3F30B0306
:102A1000002B0CBF01230023DBB2002B01D00123CC
:102A200022E07B689B68002B0ED1FB68581E7B68F8
:102A300059680B465B000B44B0FBF3F30133C3F35F
:102A40000B0343F400430FE0FB68581E7B68596892
:102A50000B469B000B4499000B44B0FBF3F301338E
:102A6000C3F30B0343F44043796809681343CB6114
:102A70007B681B681B6823F0C0017B68DA697B6890
:102A80001B6A1A437B681B680A431A607B681B68D1
:102A90009B6823F4034323F0FF037A6811697A6883
:102AA000D26811437A6812680B4393607B681B6895
:102AB000DB6823F0FF017B685A697B689B691A43D6
:102AC0007B681B680A43DA607B681B681A687B684E
:102AD0001B6842F001021A607B6800221A647B685E
:102AE000202283F83D207B6800221A637B68002245
:102AF00083F83E20002318461037BD4680BD00BF36
:102B0000A08601007F841E00FF083D0083DE1B437A
:102B1000D34D621080B588B002AFF8607A601A4673
:102B20000B467B8113463B81FFF7B8FB7861FB685E
:102B300093F83D30DBB2202B40F0E0807B690093BE
:102B4000192301227049F86800F064F90346002B4C
:102B500001D00223D3E0FB6893F83C30012B01D174
:102B60000223CCE0FB68012283F83C20FB681B6851
:102B70001B6803F00103012B07D0FB681B681A6870
:102B8000FB681B6842F001021A60FB681B681A6848
:102B9000FB681B6822F400621A60FB68212283F83C
:102BA0003D20FB68102283F83E20FB6800221A6457
:102BB000FB687A685A62FB683A895A85FB685B8DC4
:102BC0009AB2FB681A85FB68504ADA6279897B6998
:102BD0003A6AF86800F09CF80346002B01D0012304
:102BE0008DE000233B61FB681B685B693B61FB6810
:102BF0001B689B693B613B6966E07A69396AF868E2
:102C000000F022FA0346002B0DD0FB681B6C042B4E
:102C100007D1FB681B681A68FB681B6842F40072E6
:102C20001A6001236BE0FB685B6A1A78FB681B681B
:102C30001A61FB685B6A5A1CFB685A62FB685B8D11
:102C40009BB2013B9AB2FB685A85FB681B8D013B26
:102C50009AB2FB681A85FB681B685B6903F0040382
:102C6000042B1BD1FB681B8D002B17D0FB685B6A04
:102C70001A78FB681B681A61FB685B6A5A1CFB6860
:102C80005A62FB685B8D9BB2013B9AB2FB685A8526
:102C9000FB681B8D013B9AB2FB681A857A69396A19
:102CA000F86800F019FA0346002B0DD0FB681B6C86
:102CB000042B07D1FB681B681A68FB681B6842F489
:102CC00000721A6001231AE0FB681B8D002B94D15F
:102CD000FB681B681A68FB681B6842F400721A6084
:102CE000FB68202283F83D20FB68002283F83E2009
:102CF000FB68002283F83C20002300E002231846F2
:102D00001837BD4680BD00BF020010000000FFFF65
:102D100080B588B002AFF8607A603B600B467B817B
:102D2000FB68DB6A7B617B69082B06D07B69012B22
:102D300003D07B6913F5803F08D1FB681B681A68D4
:102D4000FB681B6842F480721A600BE0FB681B6B27
:102D5000122B07D1FB681B681A68FB681B6842F4DA
:102D600080721A603B6800937B6800224FF001116B
:102D7000F86800F04FF80346002B0DD0FB681B6885
:102D80001B6803F48073B3F5807F03D1FB684FF4B5
:102D900000721A64032335E0FB681B69B3F5804FAA
:102DA00008D17B89DBB21A46FB681B6802F0FE0281
:102DB0001A611BE07B89DB11DBB203F00603DBB297
:102DC00063F00F03DAB2FB681B681A613B687A682C
:102DD0000E49F86800F098F80346002B01D0012353
:102DE00010E07B89DAB2FB681B681A613B687A687D
:102DF0000749F86800F088F80346002B01D001234A
:102E000000E0002318461837BD4680BD08000100C9
:102E10000200010080B584B000AFF860B9603B608B
:102E20001346FB7148E03B68B3F1FF3F44D0FFF726
:102E300035FA0246BB69D31A3A689A4202D33B6814
:102E4000002B39D1BB681B0CDBB2012B0DD1FB6809
:102E50001B685B69DA43BB6813409BB2002B0CBF55
:102E600001230023DBB21A460CE0FB681B689B6958
:102E7000DA43BB6813409BB2002B0CBF0123002335
:102E8000DBB21A46FB799A4216D1FB6800221A631C
:102E9000FB68202283F83D20FB68002283F83E2057
:102EA000FB681B6C43F02002FB681A64FB6800227D
:102EB00083F83C20012323E0BB681B0CDBB2012B11
:102EC0000DD1FB681B685B69DA43BB6813409BB29A
:102ED000002B0CBF01230023DBB21A460CE0FB6879
:102EE0001B689B69DA43BB6813409BB2002B0CBF85
:102EF00001230023DBB21A46FB799A4293D00023C8
:102F000018461037BD4680BD80B584B000AFF8606C
:102F1000B9607A603B6071E0FB681B685B6903F431
:102F20008063B3F5806F23D1FB681B681A68FB6868
:102F30001B6842F400721A60FB681B686FF48062C1
:102F40005A61FB6800221A63FB68202283F83D2047
:102F5000FB68002283F83E20FB681B6C43F00402F0
:102F6000FB681A64FB68002283F83C20012367E0B9
:102F70007B68B3F1FF3F41D0FFF790F902463B6811
:102F8000D31A7A689A4202D37B68002B36D1BB6889
:102F90001B0CDBB2012B0CD1FB681B685B69DA43AD
:102FA000BB6813409BB2002B14BF01230023DBB28C
:102FB0000BE0FB681B689B69DA43BB6813409BB25C
:102FC000002B14BF01230023DBB2002B16D0FB68BB
:102FD00000221A63FB68202283F83D20FB68002250
:102FE00083F83E20FB681B6C43F02002FB681A64E8
:102FF000FB68002283F83C20012321E0BB681B0C06
:10300000DBB2012B0CD1FB681B685B69DA43BB6840
:1030100013409BB2002B14BF01230023DBB20BE053
:10302000FB681B689B69DA43BB6813409BB2002BAB
:1030300014BF01230023DBB2002B7FF46DAF00230C
:1030400018461037BD4680BD80B584B000AFF8602B
:10305000B9607A6034E0F86800F086F80346002B27
:1030600001D0012334E0BB68B3F1FF3F28D0FFF764
:1030700015F902467B68D31ABA689A4202D3BB6834
:10308000002B1DD1FB681B685B6903F08003802B5C
:1030900016D0FB6800221A63FB68202283F83D20CB
:1030A000FB68002283F83E20FB681B6C43F0200283
:1030B000FB681A64FB68002283F83C20012307E0C8
:1030C000FB681B685B6903F08003802BC3D100237E
:1030D00018461037BD4680BD80B584B000AFF8609B
:1030E000B9607A6034E0F86800F03EF80346002BDF
:1030F00001D0012334E0BB68B3F1FF3F28D0FFF7D4
:10310000CDF802467B68D31ABA689A4202D3BB68EC
:10311000002B1DD1FB681B685B6903F00403042BC3
:1031200016D0FB6800221A63FB68202283F83D203A
:10313000FB68002283F83E20FB681B6C43F02002F2
:10314000FB681A64FB68002283F83C20012307E037
:10315000FB681B685B6903F00403042BC3D10023E5
:1031600018461037BD4680BD80B483B000AF78608C
:103170007B681B685B6903F48063B3F5806F1BD1C8
:103180007B681B686FF480625A617B6800221A6357
:103190007B68202283F83D207B68002283F83E2054
:1031A0007B681B6C43F004027B681A647B68002216
:1031B00083F83C20012300E0002318460C37BD466D
:1031C0005DF8047B7047000080B586B000AF786082
:1031D0007B68002B01D1012367E27B681B6803F049
:1031E0000103002B75D0884B9B6803F00C03042B64
:1031F0000CD0854B9B6803F00C03082B12D1824B3B
:103200005B6803F48003B3F5800F0BD17E4B1B6822
:1032100003F40033002B5BD07B685B68002B57D135
:10322000012342E27B685B68B3F5803F06D1764BB1
:103230001B68754A43F4803313601DE07B685B684C
:10324000B3F5A02F0CD1704B1B686F4A43F4802359
:1032500013606D4B1B686C4A43F4803313600BE0C2
:10326000694B1B68684A23F480331360664B1B6804
:10327000654A23F4802313607B685B68002B13D0BE
:10328000FFF70CF8386108E0FFF708F802463B69E1
:10329000D31A642B01D9032307E25B4B1B6803F4A9
:1032A0000033002BF0D014E0FEF7F8FF386108E09F
:1032B000FEF7F4FF02463B69D31A642B01D90323BE
:1032C000F3E1514B1B6803F40033002BF0D100E015
:1032D00000BF7B681B6803F00203002B63D04A4BDE
:1032E0009B6803F00C03002B0BD0474B9B6803F04B
:1032F0000C03082B1CD1444B5B6803F48003002BA8
:1033000016D1414B1B6803F00203002B05D07B68EC
:10331000DB68012B01D00123C7E13B4B1B6823F085
:10332000F8027B681B69DB00374913430B603AE006
:103330007B68DB68002B20D0344B01221A60FEF73B
:10334000ADFF386108E0FEF7A9FF02463B69D31ADA
:10335000022B01D90323A8E12B4B1B6803F00203C6
:10336000002BF0D0284B1B6823F0F8027B681B6908
:10337000DB00254913430B6015E0244B00221A6043
:10338000FEF78CFF386108E0FEF788FF02463B69D4
:10339000D31A022B01D9032387E11B4B1B6803F0CF
:1033A0000203002BF0D17B681B6803F00803002B9D
:1033B00036D07B685B69002B16D0154B01221A6052
:1033C000FEF76CFF386108E0FEF768FF02463B69D4
:1033D000D31A022B01D9032367E10B4B5B6F03F078
:1033E0000203002BF0D01BE0094B00221A60FEF70D
:1033F00055FF38610EE0FEF751FF02463B69D31AD4
:10340000022B07D9032350E1003802400000474255
:10341000800E4742884B5B6F03F00203002BEAD11A
:103420007B681B6803F00403002B00F097800023E7
:10343000FB75814B1B6C03F08053002B0FD10023D5
:10344000BB607D4B1B6C7C4A43F0805313647A4B0A
:103450001B6C03F08053BB60BB680123FB75774B8B
:103460001B6803F48073002B18D1744B1B68734ADC
:1034700043F480731360FEF711FF386108E0FEF734
:103480000DFF02463B69D31A022B01D903230CE13D
:103490006A4B1B6803F48073002BF0D07B689B6839
:1034A000012B06D1644B1B6F634A43F00103136782
:1034B0001CE07B689B68052B0CD15F4B1B6F5E4A41
:1034C00043F0040313675C4B1B6F5B4A43F001033B
:1034D00013670BE0584B1B6F574A23F00103136728
:1034E000554B1B6F544A23F0040313677B689B689A
:1034F000002B15D0FEF7D2FE38610AE0FEF7CEFEB3
:1035000002463B69D31A41F28832934201D9032320
:10351000CBE0494B1B6F03F00203002BEED014E00D
:10352000FEF7BCFE38610AE0FEF7B8FE02463B69D2
:10353000D31A41F28832934201D90323B5E03E4BBE
:103540001B6F03F00203002BEED1FB7D012B05D195
:10355000394B1B6C384A23F0805313647B689B699A
:10356000002B00F0A180344B9B6803F00C03082B68
:103570005CD07B689B69022B41D1314B00221A60E1
:10358000FEF78CFE386108E0FEF788FE02463B69D4
:10359000D31A022B01D9032387E0274B1B6803F0C2
:1035A0000073002BF0D17B68DA697B681B6A1A43D1
:1035B0007B685B6A9B011A437B689B6A5B08013BE3
:1035C0001B041A437B68DB6A1B061B4913434B60D1
:1035D0001B4B01221A60FEF761FE386108E0FEF71E
:1035E0005DFE02463B69D31A022B01D903235CE03E
:1035F000114B1B6803F00073002BF0D054E0104B0C
:1036000000221A60FEF74AFE386108E0FEF746FE27
:1036100002463B69D31A022B01D9032345E0064B2E
:103620001B6803F00073002BF0D13DE07B689B69C1
:10363000012B07D1012338E0003802400070004020
:10364000600047421B4B5B68FB607B689B69012BFA
:1036500028D0FB6803F480027B68DB699A4221D1A1
:10366000FB6803F03F027B681B6A9A421AD1FA6832
:1036700047F6C07313407A68526A9201934211D19F
:10368000FB6803F440327B689B6A5B08013B1B04C8
:103690009A4207D1FB6803F070627B68DB6A1B0605
:1036A0009A4201D0012300E0002318461837BD4696
:1036B00080BD00BF0038024080B584B000AF7860A4
:1036C00039607B68002B01D10123CCE0684B1B687B
:1036D00003F007033A689A420CD9654B3A68D2B2B4
:1036E0001A70634B1B6803F007033A689A4201D0D3
:1036F0000123B8E07B681B6803F00203002B20D095
:103700007B681B6803F00403002B05D0594B9B68B2
:10371000584A43F4E05393607B681B6803F0080346
:10372000002B05D0534B9B68524A43F4604393608F
:10373000504B9B6823F0F0027B689B684D49134314
:103740008B607B681B6803F00103002B44D07B680F
:103750005B68012B07D1474B1B6803F40033002B38
:1037600019D101237FE07B685B68022B03D07B6863
:103770005B68032B07D13F4B1B6803F00073002BE2
:1037800009D101236FE03B4B1B6803F00203002BC0
:1037900001D1012367E0374B9B6823F003027B686C
:1037A0005B68344913438B60FEF778FDF8600AE0EC
:1037B000FEF774FD0246FB68D31A41F28832934249
:1037C00001D903234FE02B4B9B6803F00C027B686D
:1037D0005B689B009A42EBD1254B1B6803F0070303
:1037E0003A689A420CD2224B3A68D2B21A70204BF5
:1037F0001B6803F007033A689A4201D0012332E0C4
:103800007B681B6803F00403002B08D0194B9B68EE
:1038100023F4E0527B68DB68164913438B607B68B6
:103820001B6803F00803002B09D0124B9B6823F49C
:1038300060427B681B69DB000E4913438B6000F01C
:1038400021F802460B4B9B681B0903F00F030A4942
:10385000CB5C22FA03F3094A1360094B1B68184634
:10386000FEF7D8FC002318461037BD4680BD00BFC8
:10387000003C024000380240085B00080C000020B9
:10388000100000202DE9B04F94B000AF00237B64FE
:103890000023FB6400233B640023BB64794B9B68DB
:1038A00003F00C03082B0DD0082B00F2E180002B55
:1038B00002D0042B03D0DBE0734BBB64DBE0734B23
:1038C000BB64D8E06F4B5B6803F03F037B646D4BD8
:1038D0005B6803F48003002B63D06A4B5B689B0931
:1038E0000022BB63FA63BB6BC3F308033B63002393
:1038F0007B63D7E90C4522462B464FF000004FF082
:103900000001590141EAD261500102460B462146AD
:10391000511A3961294663EB01037B614FF00002C4
:103920004FF00003D7E904AB59468B01514643EAF7
:10393000916351468A015146B2EB0108594663EB47
:1039400001094FF000024FF000034FEAC90343EAB8
:1039500058734FEAC80290469946234618EB030372
:10396000BB602B4649EB0303FB604FF000024FF0B6
:103970000003D7E9024529464B02214643EAD153C9
:1039800021464A02104619467B6C0022BB62FA624D
:10399000D7E90A23FCF7DAFF02460B461346FB641D
:1039A00058E0384B5B689B09002218461146C0F36B
:1039B00008033B6200237B62D7E9088942464B46F5
:1039C0004FF000004FF00001590141EAD26150016F
:1039D00002460B464146B2EB010A494663EB010B36
:1039E0004FF000024FF000034FEA8B1343EA9A6353
:1039F0004FEA8A12B2EB0A0463EB0B054FF00002A8
:103A00004FF00003EB0043EA5473E20014461D46F6
:103A10004346E3183B604B4645EB03037B604FF0A6
:103A200000024FF00003D7E9004529468B022146EA
:103A300043EA915321468A02104619467B6C0022C4
:103A4000BB61FA61D7E90623FCF780FF02460B460B
:103A50001346FB640B4B5B681B0C03F00303013341
:103A60005B003B64FA6C3B6CB2FBF3F3BB6402E0BB
:103A7000054BBB6400BFBB6C18465037BD46BDE864
:103A8000B08F00BF003802400024F40000127A001A
:103A900080B400AF034B1B681846BD465DF8047B3D
:103AA000704700BF0C00002080B500AFFFF7F0FFAB
:103AB0000246054B9B689B0A03F007030349CB5C56
:103AC00022FA03F3184680BD00380240185B000854
:103AD00080B582B000AF78607B68002B01D10123F4
:103AE00041E07B6893F83D30DBB2002B06D17B6868
:103AF000002283F83C207868FEF7FAF97B680222FE
:103B000083F83D207B681A687B68043319461046A9
:103B100000F076FE7B68012283F846207B68012254
:103B200083F83E207B68012283F83F207B680122D6
:103B300083F840207B68012283F841207B680122C2
:103B400083F842207B68012283F843207B680122AE
:103B500083F844207B68012283F845207B6801229A
:103B600083F83D20002318460837BD4680BD00007D
:103B700080B485B000AF78607B6893F83D30DBB2ED
:103B8000012B01D001234EE07B68022283F83D2007
:103B90007B681B68DA687B681B6842F00102DA60A8
:103BA0007B681B68234A934222D07B681B68B3F171
:103BB000804F1DD07B681B681F4A934218D07B68DA
:103BC0001B681E4A934213D07B681B681C4A9342B1
:103BD0000ED07B681B681B4A934209D07B681B6828
:103BE000194A934204D07B681B68184A934211D14A
:103BF0007B681B689B6803F00703FB60FB68062B70
:103C000010D07B681B681A687B681B6842F0010251
:103C10001A6007E07B681B681A687B681B6842F0C3
:103C200001021A60002318461437BD465DF8047B74
:103C3000704700BF00000140000400400008004041
:103C4000000C00400004014000400140001800400A
:103C500080B582B000AF78607B68002B01D1012372
:103C600041E07B6893F83D30DBB2002B06D17B68E6
:103C7000002283F83C20786800F039F87B68022243
:103C800083F83D207B681A687B6804331946104628
:103C900000F0B6FD7B68012283F846207B68012294
:103CA00083F83E207B68012283F83F207B68012255
:103CB00083F840207B68012283F841207B68012241
:103CC00083F842207B68012283F843207B6801222D
:103CD00083F844207B68012283F845207B68012219
:103CE00083F83D20002318460837BD4680BD80B4C8
:103CF00083B000AF786000BF0C37BD465DF8047B31
:103D00007047000080B584B000AF786039603B68D0
:103D1000002B09D17B6893F83E30DBB2012B14BF36
:103D200001230023DBB222E03B68042B09D17B682E
:103D300093F83F30DBB2012B14BF01230023DBB229
:103D400015E03B68082B09D17B6893F84030DBB263
:103D5000012B14BF01230023DBB208E07B6893F83A
:103D60004130DBB2012B14BF01230023DBB2002B57
:103D700001D001237CE03B68002B04D17B68022248
:103D800083F83E2013E03B68042B04D17B680222B9
:103D900083F83F200BE03B68082B04D17B680222AC
:103DA00083F8402003E07B68022283F841207B688F
:103DB0001B6801223968184601F03CF97B681B68D2
:103DC0002D4A934204D07B681B682C4A934201D150
:103DD000012300E00023002B07D07B681B685A6C8E
:103DE0007B681B6842F400425A647B681B68224A65
:103DF000934222D07B681B68B3F1804F1DD07B6853
:103E00001B681F4A934218D07B681B681D4A934267
:103E100013D07B681B681C4A93420ED07B681B68DA
:103E2000164A934209D07B681B68184A934204D013
:103E30007B681B68164A934211D17B681B689B689C
:103E400003F00703FB60FB68062B10D07B681B6840
:103E50001A687B681B6842F001021A6007E07B6801
:103E60001B681A687B681B6842F001021A60002315
:103E700018461037BD4680BD0000014000040140D7
:103E80000004004000080040000C004000400140D9
:103E90000018004080B582B000AF78607B68002BCE
:103EA00001D1012341E07B6893F83D30DBB2002B68
:103EB00006D17B68002283F83C20786800F039F84E
:103EC0007B68022283F83D207B681A687B68043394
:103ED0001946104600F094FC7B68012283F84620C6
:103EE0007B68012283F83E207B68012283F83F2013
:103EF0007B68012283F840207B68012283F84120FF
:103F00007B68012283F842207B68012283F84320EA
:103F10007B68012283F844207B68012283F84520D6
:103F20007B68012283F83D20002318460837BD46F0
:103F300080BD80B483B000AF786000BF0C37BD4651
:103F40005DF8047B7047000080B584B000AF7860F6
:103F500039600023FB733B68002B04D17B6893F826
:103F60003E30DBB213E03B68042B04D17B6893F84E
:103F70003F30DBB20BE03B68082B04D17B6893F841
:103F80004030DBB203E07B6893F84130DBB2BB73B7
:103F90003B68002B04D17B6893F84230DBB213E01E
:103FA0003B68042B04D17B6893F84330DBB20BE011
:103FB0003B68082B04D17B6893F84430DBB203E004
:103FC0007B6893F84530DBB27B73BB7B012B02D15E
:103FD0007B7B012B01D00123CCE03B68002B04D17B
:103FE0007B68022283F83E2013E03B68042B04D157
:103FF0007B68022283F83F200BE03B68082B04D14A
:104000007B68022283F8402003E07B68022283F869
:1040100041203B68002B04D17B68022283F84220B8
:1040200013E03B68042B04D17B68022283F8432011
:104030000BE03B68082B04D17B68022283F8442004
:1040400003E07B68022283F845203B680C2B41D8B3
:1040500001A252F823F000BF8D400008D5400008AF
:10406000D5400008D54000089F400008D540000812
:10407000D5400008D5400008B1400008D5400008F0
:10408000D5400008D5400008C34000087B681B6885
:10409000DA687B681B6842F00202DA601DE07B6828
:1040A0001B68DA687B681B6842F00402DA6014E07F
:1040B0007B681B68DA687B681B6842F00802DA607C
:1040C0000BE07B681B68DA687B681B6842F01002B3
:1040D000DA6002E00123FB7300BFFB7B002B48D1B9
:1040E0007B681B6801223968184600F0A3FF7B68D3
:1040F0001B68224A934222D07B681B68B3F1804F31
:104100001DD07B681B681E4A934218D07B681B68D1
:104110001C4A934213D07B681B681B4A93420ED003
:104120007B681B68194A934209D07B681B68184A50
:10413000934204D07B681B68164A934211D17B6876
:104140001B689B6803F00703BB60BB68062B10D09D
:104150007B681B681A687B681B6842F001021A6062
:1041600007E07B681B681A687B681B6842F00102E5
:104170001A60FB7B18461037BD4680BD0000014029
:104180000004004000080040000C00400004014012
:10419000004001400018004080B584B000AF786056
:1041A0007B681B68DB68FB607B681B681B69BB6006
:1041B000BB6803F00203002B20D0FB6803F002036E
:1041C000002B1BD07B681B686FF002021A617B68B2
:1041D00001221A777B681B689B6903F00303002B9D
:1041E00003D07868FDF752F805E0786800F0E9FA46
:1041F000786800F0F0FA7B6800221A77BB6803F059
:104200000403002B20D0FB6803F00403002B1BD019
:104210007B681B686FF004021A617B6802221A77C0
:104220007B681B689B6903F44073002B03D078689C
:10423000FDF72CF805E0786800F0C3FA786800F024
:10424000CAFA7B6800221A77BB6803F00803002BC8
:1042500020D0FB6803F00803002B1BD07B681B6891
:104260006FF008021A617B6804221A777B681B686A
:10427000DB6903F00303002B03D07868FDF706F831
:1042800005E0786800F09DFA786800F0A4FA7B6891
:1042900000221A77BB6803F01003002B20D0FB68C4
:1042A00003F01003002B1BD07B681B686FF010021B
:1042B0001A617B6808221A777B681B68DB6903F444
:1042C0004073002B03D07868FCF7E0FF05E07868C6
:1042D00000F077FA786800F07EFA7B6800221A779F
:1042E000BB6803F00103002B0CD0FB6803F0010353
:1042F000002B07D07B681B686FF001021A61786899
:10430000FCF7DAFFBB6803F08003002B0CD0FB68DE
:1043100003F08003002B07D07B681B686FF08002DE
:104320001A61786800F032FFBB6803F04003002B8D
:104330000CD0FB6803F04003002B07D07B681B68A0
:104340006FF040021A61786800F04FFABB6803F022
:104350002003002B0CD0FB6803F02003002B07D0B8
:104360007B681B686FF020021A61786800F004FF18
:1043700000BF1037BD4680BD80B586B000AFF86085
:10438000B9607A600023FB75FB6893F83C30012B21
:1043900001D1022388E0FB68012283F83C207B687E
:1043A000002B1BD1FB681868BB681968BB685A688A
:1043B000BB68DB6800F07AFCFB681B689A69FB68E5
:1043C0001B6822F00C029A61FB681B689969BB6844
:1043D0009A68FB681B680A439A6160E07B68042B5B
:1043E0001CD1FB681868BB681968BB685A68BB6851
:1043F000DB6800F0FEFCFB681B689A69FB681B68C1
:1044000022F440629A61FB681B689969BB689B68EB
:104410001A02FB681B680A439A6140E07B68082B1C
:104420001BD1FB681868BB681968BB685A68BB6811
:10443000DB6800F04BFDFB681B68DA69FB681B68F2
:1044400022F00C02DA61FB681B68D969BB689A68C4
:10445000FB681B680A43DA6121E07B680C2B1CD1E6
:10446000FB681868BB681968BB685A68BB68DB687A
:1044700000F068FDFB681B68DA69FB681B6822F4C2
:104480004062DA61FB681B68D969BB689B681A02E5
:10449000FB681B680A43DA6101E00123FB75FB68D6
:1044A000002283F83C20FB7D18461837BD4680BDAE
:1044B00080B586B000AFF860B9607A600023FB7504
:1044C000FB6893F83C30012B01D10223AEE0FB687E
:1044D000012283F83C207B680C2B00F29F8001A214
:1044E00052F823F0194500081D4600081D46000833
:1044F0001D460008594500081D4600081D460008D5
:104500001D4600089B4500081D4600081D46000882
:104510001D460008DB450008FB681B68B9681846A3
:1045200000F014FAFB681B689A69FB681B6842F08C
:1045300008029A61FB681B689A69FB681B6822F095
:1045400004029A61FB681B689969BB681A69FB6879
:104550001B680A439A6164E0FB681B68B9681846E7
:1045600000F064FAFB681B689A69FB681B6842F4F8
:1045700000629A61FB681B689A69FB681B6822F4F9
:1045800080629A61FB681B689969BB681B691A02A3
:10459000FB681B680A439A6143E0FB681B68B968C3
:1045A000184600F0B9FAFB681B68DA69FB681B68FB
:1045B00042F00802DA61FB681B68DA69FB681B6875
:1045C00022F00402DA61FB681B68D969BB681A69CA
:1045D000FB681B680A43DA6123E0FB681B68B96863
:1045E000184600F00DFBFB681B68DA69FB681B6866
:1045F00042F40062DA61FB681B68DA69FB681B68D9
:1046000022F48062DA61FB681B68D969BB681B69A8
:104610001A02FB681B680A43DA6102E00123FB759A
:1046200000BFFB68002283F83C20FB7D184618374A
:10463000BD4680BD80B584B000AF7860396000238E
:10464000FB737B6893F83C30012B01D10223B4E06B
:104650007B68012283F83C207B68022283F83D209E
:104660007B681B689B68BB60BB6823F07703BB60FB
:10467000BB6823F47F43BB607B681B68BA689A60A1
:104680003B681B68B3F5005F3ED0B3F5005F00F2F6
:104690008780B3F5805F00F08680B3F5805F7FD8B8
:1046A000702B1AD0702B7BD8602B50D0602B77D812
:1046B000502B3CD0502B73D8402B58D0402B6FD868
:1046C000302B64D0302B6BD8202B60D0202B67D8B8
:1046D000002B5CD0102B5AD062E07B6818683B68D6
:1046E00099683B685A683B68DB6800F083FC7B682C
:1046F0001B689B68BB60BB6843F07703BB607B684B
:104700001B68BA689A604FE07B6818683B689968D4
:104710003B685A683B68DB6800F06CFC7B681B6890
:104720009A687B681B6842F480429A603CE07B6830
:1047300018683B6859683B68DB681A4600F02AFB3A
:104740007B681B685021184600F039FC2CE07B6820
:1047500018683B6859683B68DB681A4600F086FBBE
:104760007B681B686021184600F029FC1CE07B6810
:1047700018683B6859683B68DB681A4600F00AFB1A
:104780007B681B684021184600F019FC0CE07B6830
:104790001A683B681B681946104600F010FC03E0DD
:1047A0000123FB7300E000BF7B68012283F83D20FA
:1047B0007B68002283F83C20FB7B18461037BD46FF
:1047C00080BD80B483B000AF786000BF0C37BD46B9
:1047D0005DF8047B704780B483B000AF786000BFA1
:1047E0000C37BD465DF8047B704780B483B000AFE2
:1047F000786000BF0C37BD465DF8047B7047000051
:1048000080B485B000AF786039607B681B68FB605E
:104810007B68434A934213D07B68B3F1804F0FD03B
:104820007B68404A93420BD07B683F4A934207D053
:104830007B683E4A934203D07B683D4A934208D14D
:10484000FB6823F07003FB603B685B68FA68134306
:10485000FB607B68324A93422BD07B68B3F1804F78
:1048600027D07B682F4A934223D07B682E4A9342FD
:104870001FD07B682D4A93421BD07B682C4A934201
:1048800017D07B682B4A934213D07B682A4A934205
:104890000FD07B68294A93420BD07B68284A934209
:1048A00007D07B68274A934203D07B68264A93420D
:1048B00008D1FB6823F44073FB603B68DB68FA684F
:1048C0001343FB60FB6823F080023B685B69134382
:1048D000FB603B689A687B68DA623B681A687B68B1
:1048E0009A627B680E4A934203D07B68104A9342D7
:1048F00003D13B681A697B681A637B681B6843F0C5
:1049000004027B681A607B6801225A617B68FA683E
:104910001A6000BF1437BD465DF8047B704700BFC6
:10492000000001400004004000080040000C00406E
:1049300000040140004001400044014000480140A3
:1049400000180040001C00400020004080B487B0E8
:1049500000AF786039607B681B6A7B617B681B6A8B
:1049600023F001027B681A627B685B683B617B68AD
:104970009B69FB60FB6823F07003FB60FB6823F01E
:104980000303FB603B681B68FA681343FB607B69A9
:1049900023F002037B613B689B687A6913437B6168
:1049A0007B68204A934203D07B681F4A93420CD114
:1049B0007B6923F008037B613B68DB687A691343FA
:1049C0007B617B6923F004037B617B68154A93421A
:1049D00003D07B68144A934211D13B6923F480735E
:1049E0003B613B6923F400733B613B685B693A6957
:1049F00013433B613B689B693A6913433B617B68A6
:104A00003A695A607B68FA689A613B685A687B68C1
:104A10005A637B687A691A6200BF1C37BD465DF82D
:104A2000047B7047000001400004014080B487B05F
:104A300000AF786039607B681B6A7B617B681B6AAA
:104A400023F010027B681A627B685B683B617B68BD
:104A50009B69FB60FB6823F4E043FB60FB6823F485
:104A60004073FB603B681B681B02FA681343FB60E2
:104A70007B6923F020037B613B689B681B017A699B
:104A800013437B617B68224A934203D07B68214AAF
:104A900093420DD17B6923F080037B613B68DB6827
:104AA0001B017A6913437B617B6923F040037B61BF
:104AB0007B68174A934203D07B68164A934213D10E
:104AC0003B6923F480633B613B6923F400633B61F2
:104AD0003B685B699B003A6913433B613B689B6998
:104AE0009B003A6913433B617B683A695A607B6873
:104AF000FA689A613B685A687B689A637B687A694E
:104B00001A6200BF1C37BD465DF8047B704700BFCA
:104B1000000001400004014080B487B000AF78601D
:104B200039607B681B6A7B617B681B6A23F4807237
:104B30007B681A627B685B683B617B68DB69FB6052
:104B4000FB6823F07003FB60FB6823F00303FB604A
:104B50003B681B68FA681343FB607B6923F40073AE
:104B60007B613B689B681B027A6913437B617B68AE
:104B7000214A934203D07B68204A93420DD17B693E
:104B800023F400637B613B68DB681B027A69134393
:104B90007B617B6923F480637B617B68164A934267
:104BA00003D07B68154A934213D13B6923F48053A9
:104BB0003B613B6923F400533B613B685B691B012C
:104BC0003A6913433B613B689B691B013A69134394
:104BD0003B617B683A695A607B68FA68DA613B68D6
:104BE0005A687B68DA637B687A691A6200BF1C378F
:104BF000BD465DF8047B70470000014000040140A1
:104C000080B487B000AF786039607B681B6A3B6115
:104C10007B681B6A23F480527B681A627B685B683E
:104C20007B617B68DB69FB60FB6823F4E043FB602E
:104C3000FB6823F44073FB603B681B681B02FA6847
:104C40001343FB603B6923F400533B613B689B6863
:104C50001B033A6913433B617B68124A934203D0BA
:104C60007B68114A934209D17B6923F480437B61BD
:104C70003B685B699B017A6913437B617B687A6956
:104C80005A607B68FA68DA613B685A687B681A6424
:104C90007B683A691A6200BF1C37BD465DF8047B29
:104CA000704700BF000001400004014080B487B09D
:104CB00000AFF860B9607A603B60FB681B6A3B61DB
:104CC000FB681B6A23F00102FB681A62FB689B69A0
:104CD0007B61FB68284A93421BD0FB68B3F1804F8D
:104CE00017D0FB68254A934213D0FB68244A9342AD
:104CF0000FD0FB68234A93420BD0FB68224A9342B1
:104D000007D0FB68214A934203D0FB68204A9342B4
:104D100001D1012300E00023002B08D07B6923F0A0
:104D200003037B617A697B6813437B6103E07B69E2
:104D300043F001037B617B6923F0F0037B613B68F7
:104D40001B01DBB27A6913437B613B6923F00A03E1
:104D50003B61BB6803F00A033A6913433B61FB689C
:104D60007A699A61FB683A691A6200BF1C37BD46CE
:104D70005DF8047B704700BF000001400004004064
:104D800000080040000C00400004014000400140C9
:104D90000018004080B487B000AFF860B9607A6056
:104DA000FB681B6A7B61FB681B6A23F00102FB68DE
:104DB0001A62FB689B693B613B6923F0F0033B612E
:104DC0007B681B013A6913433B617B6923F00A034B
:104DD0007B617A69BB6813437B61FB683A699A61BE
:104DE000FB687A691A6200BF1C37BD465DF8047B18
:104DF000704780B487B000AFF860B9607A603B60FC
:104E0000FB681B6A7B61FB681B6A23F01002FB686E
:104E10001A62FB689B693B613B6923F440733B6109
:104E20007B681B023A6913433B613B6923F470437F
:104E30003B613B681B039BB23A6913433B617B694F
:104E400023F0A0037B61BB681B0103F0A0037A6918
:104E500013437B61FB683A699A61FB687A691A625D
:104E600000BF1C37BD465DF8047B704780B487B037
:104E700000AFF860B9607A60FB681B6A7B61FB6811
:104E80001B6A23F01002FB681A62FB689B693B6196
:104E90003B6923F470433B617B681B033A6913430E
:104EA0003B617B6923F0A0037B61BB681B017A69CE
:104EB00013437B61FB683A699A61FB687A691A62FD
:104EC00000BF1C37BD465DF8047B704780B487B0D7
:104ED00000AFF860B9607A603B60FB681B6A7B6179
:104EE000FB681B6A23F48072FB681A62FB68DB694B
:104EF0003B613B6923F003033B613A697B681343E1
:104F00003B613B6923F0F0033B613B681B01DBB273
:104F10003A6913433B617B6923F420637B61BB687F
:104F20001B0203F420637A6913437B61FB683A69CF
:104F3000DA61FB687A691A6200BF1C37BD465DF80A
:104F4000047B704780B487B000AFF860B9607A60C6
:104F50003B60FB681B6A7B61FB681B6A23F4805221
:104F6000FB681A62FB68DB693B613B6923F44073B1
:104F70003B617B681B023A6913433B613B6923F445
:104F800070433B613B681B039BB23A6913433B612F
:104F90007B6923F420437B61BB681B0303F420433C
:104FA0007A6913437B61FB683A69DA61FB687A6965
:104FB0001A6200BF1C37BD465DF8047B704780B4A1
:104FC00085B000AF786039607B689B68FB60FB68E8
:104FD00023F07003FB603A68FB68134343F0070358
:104FE000FB607B68FA689A6000BF1437BD465DF8C5
:104FF000047B704780B487B000AFF860B9607A6016
:105000003B60FB689B687B617B6923F47F437B612A
:105010003B681A027B681A43BB6813437A691343DF
:105020007B61FB687A699A6000BF1C37BD465DF8FA
:10503000047B704780B487B000AFF860B9607A60D5
:10504000BB6803F01F03012202FA03F37B61FB68D4
:105050001A6A7B69DB431A40FB681A62FB681A6AAA
:10506000BB6803F01F03796801FA03F31A43FB6876
:105070001A6200BF1C37BD465DF8047B7047000014
:1050800080B485B000AF786039607B6893F83C30BD
:10509000012B01D102235AE07B68012283F83C20D6
:1050A0007B68022283F83D207B681B685B68FB609D
:1050B0007B681B689B68BB60FB6823F07003FB6028
:1050C0003B681B68FA681343FB607B681B68FA68DF
:1050D0005A607B681B68214A934222D07B681B6818
:1050E000B3F1804F1DD07B681B681D4A934218D0D6
:1050F0007B681B681B4A934213D07B681B681A4A63
:1051000093420ED07B681B68184A934209D07B6893
:105110001B68174A934204D07B681B68154A934268
:105120000CD1BB6823F08003BB603B685B68BA6846
:105130001343BB607B681B68BA689A607B68012276
:1051400083F83D207B68002283F83C20002318462A
:105150001437BD465DF8047B704700BF0000014076
:105160000004004000080040000C00400004014022
:10517000004001400018004080B483B000AF786068
:1051800000BF0C37BD465DF8047B704780B483B028
:1051900000AF786000BF0C37BD465DF8047B7047F8
:1051A0000EB410B59DB01FAB029006906FF0004199
:1051B0000A48079104910A4953F8042B05910024E9
:1051C00002A9006801931B9400F094F9029B1C70E3
:1051D0001DB0BDE8104003B0704700BF18000020AC
:1051E0000802FFFF02440346934200D1704703F8D0
:1051F000011BF9E7014B1868704700BF1800002039
:1052000070B50D4D0D4C641BA4100026A64209D1AB
:105210000B4D0C4C00F064FC641BA4100026A6424D
:1052200005D170BD55F8043B98470136EEE755F8B7
:10523000043B98470136F2E75C5B00085C5B0008C2
:105240005C5B0008605B00087047704738B5054636
:10525000002941D051F8043C0C1F002BB8BFE418C2
:1052600000F0E0F81D4A136833B963601460284603
:10527000BDE8384000F0DCB8A34208D92068211806
:105280008B4201BF19685B6809182160EDE71A4677
:105290005B680BB1A342FAD911685018A0420BD138
:1052A00020680144501883421160E0D118685B689F
:1052B000536008441060DAE702D90C232B60D6E76C
:1052C000206821188B4204BF19685B68636004BFC3
:1052D000091821605460CAE738BD00BF2C030020C4
:1052E00070B50F4E0C463168054611B900F0A4FBAD
:1052F00030602146284600F09FFB431C03D14FF04D
:10530000FF34204670BDC41C24F00304A042F8D032
:10531000211A284600F090FB0130F2D1EFE700BFE0
:10532000280300202DE9F843CD1C25F0030508359E
:105330000C2D38BF0C25002D064601DBA94204D9EF
:105340000C2333600020BDE8F883DFF8D48000F040
:1053500069F8D8F800301C4644BB29463046FFF7B0
:10536000BFFF431C044658D1D8F800402746002F01
:1053700043D1002C4BD023683946304604EB030957
:1053800000F05AFB814542D121686D1A294630460A
:10539000FFF7A6FF01303AD023682B442360D8F8EA
:1053A00000305A6862BBC8F800700FE02268521BD8
:1053B00020D40B2A17D96119A342256018BF596060
:1053C000636808BFC8F8001062514B60304600F0B7
:1053D0002FF804F10B00231D20F00700C21A1CBF98
:1053E0001B1AA350AFE76268A3420CBFC8F80020A5
:1053F0005A60EBE723466468AEE73C467F68B6E751
:105400001A465B68A342FBD100235360DEE70C23FE
:105410003360304600F00CF894E70560D6E700BF33
:105420002C0300200148FFF70FBF00BF240300201A
:105430000148FFF70ABF00BF240300202DE9F04711
:105440008E681F46BE420B6882460C4690462DD899
:10545000B1F90C2012F4906F26D06569096905EB4B
:105460004505A3EB010905EBD5757B1C4B446D107D
:105470009D4238BF1D46530527D52946FFF752FFE9
:10548000064660B321694A4600F0E6FAA38923F490
:10549000906343F08003A381266165614E44A5EBD0
:1054A00009052660A5603E46BE4200D93E462068FA
:1054B0003246414600F0A6FAA3689B1BA36023680E
:1054C000334423600020BDE8F0872A4600F0D2FA7A
:1054D00006460028E0D121695046FFF7B7FE0C23AD
:1054E000CAF80030A38943F04003A3814FF0FF3096
:1054F000E9E700002DE9F04F98468B891B069DB027
:1055000007460D46144610D50B6973B94021FFF7C5
:1055100009FF2860286130B90C233B604FF0FF3051
:105520001DB0BDE8F08F40236B6100230993202359
:105530008DF82930CDF80C803023DFF89C818DF870
:105540002A304FF0010923469A4613F8012B0AB17D
:10555000252AF9D1BAEB040B0BD05B46224629462B
:105560003846FFF76BFF013000F0A780099A5A44D4
:1055700009929AF80030002B00F09F8000234FF032
:10558000FF32CDE905230AF1010A049307938DF850
:1055900053301A935446052214F8011B4E48FAF76B
:1055A00017FE049AD8B9D00644BF20238DF8533093
:1055B000110744BF2B238DF853309AF800302A2B63
:1055C00015D0079A544600204FF00A0C214611F8D6
:1055D000013B303B092B4BD9B0B1079214E0A0EB53
:1055E000080309FA03F313430493A246D2E7039B8B
:1055F000191D1B680391002BBBBF5B4242F00202E6
:1056000007930793B8BF049223782E2B0AD16378AF
:105610002A2B32D1039B1A1D1B68039243EAE373C2
:1056200002340593DFF8C0A0217803225046FAF730
:10563000CFFD38B1049BA0EB0A0040228240134307
:105640000134049314F8011B24488DF82810062215
:10565000FAF7BEFD002836D0214B1BBB039B073356
:1056600023F0070308330393099B334409936AE744
:105670000CFB02320C460120A8E7002301340593FD
:1056800019464FF00A0C204610F8012B303A092A2F
:1056900003D9002BC6D00591C4E70CFB01210446B9
:1056A0000123F0E703AB00932A460E4B04A93846CA
:1056B000AFF30080421C0646D6D1AB895B063FF5AE
:1056C0002DAF09982CE703AB00932A46054B04A99C
:1056D000384600F079F8EDE7205B00082A5B000807
:1056E000000000003D540008265B00082DE9F0474B
:1056F000164698468A680B69DDF820909342B8BF39
:105700001346336091F8432007460C460AB1013333
:1057100033602368990642BF3368023333602568DB
:1057200015F0060506D104F1190AE36832689B1AE0
:10573000AB4226DC94F843302268003B18BF0123BB
:1057400092062BD404F1430241463846C847013043
:105750001ED02368226903F00603042B02BFE5680C
:105760003368ED1AA3680CBF25EAE575002593425E
:10577000C4BF9B1AED1800261A34B5421AD1002076
:1057800008E00123524641463846C847013003D15C
:105790004FF0FF30BDE8F0870135C6E7E1185A1C2D
:1057A000302081F84300224494F8451082F84310D9
:1057B0000233C7E70123224641463846C847013035
:1057C000E6D00136D9E700002DE9FF470F7E0C9E99
:1057D000782F914680460C469A4601F1430207D83D
:1057E000622F0AD8002F00F0D180582F00F0B88027
:1057F00004F1420684F842703AE0A7F16303152BE6
:10580000F6D801A151F823F0615800087558000836
:10581000F1570008F1570008F1570008F157000848
:1058200075580008F1570008F1570008F1570008B3
:10583000F1570008735900089F5800082D590008B7
:10584000F1570008F157000895590008F157000872
:105850009F580008F1570008F15700083559000813
:1058600033681A1D1B68326004F1420684F8423026
:1058700001239CE033682068191D3160060601D5BC
:105880001D6803E04506FBD5B3F90050002D03DA8F
:105890002D236D4284F8433058480A2311E02168D3
:1058A0003368080653F8045B02D4490648BFADB21A
:1058B0006F2F5248336014BF0A230823002184F855
:1058C00043106668A660002E05DB21682E4321F098
:1058D000040121604BD01646B5FBF3F103FB1157D1
:1058E000C75D06F8017D2F46BB420D46F4D9082B53
:1058F0000BD12368DF0708D5236961689942DEBFB1
:10590000302306F8013C06F1FF36921B2261CDF8E8
:1059100000A04B4603AA21464046FFF7E7FE0130B0
:105920004AD14FF0FF3004B0BDE8F087236843F060
:10593000200323603248782784F845702368316853
:105940001F0651F8045B02D45F0648BFADB2316058
:10595000D90744BF43F0200323601DB11023ADE7F6
:105960002648E9E7236823F020032360F6E716467C
:10597000BDE7336825686169181D30602E061B6815
:1059800001D5196002E06806FBD519800023236168
:105990001646BCE733681A1D32601E686268002133
:1059A0003046FAF715FC08B1801B6060636823611C
:1059B000002384F84330AAE723693246494640462B
:1059C000D0470130ADD023689B0713D4E068039B18
:1059D0009842B8BF1846A6E70123324649464046DA
:1059E000D04701309DD00135E36803995B1AAB4283
:1059F000F2DCEBE7002504F11906F5E7315B00085E
:105A0000425B0008884210B501EB020402D98442CF
:105A1000234607D8431EA14208D011F8012B03F8F2
:105A2000012FF8E7024401468A4200D110BD13F865
:105A3000014D02F8014DF7E738B5064D0023044645
:105A400008462B60FCF752FB431C02D12B6803B1C4
:105A5000236038BD200300200A44914200F1FF3347
:105A600000D1704710B511F8014B03F8014F914276
:105A7000F9D110BD2DE9F041074614460D4621B974
:105A8000BDE8F0411146FFF74DBC2AB9FFF7DEFB38
:105A900025462846BDE8F08100F01AF88442064603
:105AA00002D8B4EB500FF4D821463846FFF73AFC41
:105AB000804608B94546ECE7B4422246294628BF4D
:105AC0003246FFF7C9FF29463846FFF7BFFBF1E72B
:105AD00051F8043C181F002BBCBF0B58C01870476E
